:03000000020C07E8
:0C0C0700787FE4F6D8FD75813A020C4EAF
:1011C400E4FDFCC3ED9FEC9E50070DBD00010C80B7
:0111D400F228
:0111D50022F7
:1010DF008F368D3780077FD0120F33500512115185
:0F10EF0080F4AF36120F33AF37120F3302117880
:020FB5008F3873
:100FB700E4F53980077FD0120F33500512115180A5
:100FC700F4AF38120F331211657FD1120F3312109D
:100FD700218F3912119EC2B67FF47E0112105CD2A6
:0A0FE700B67FF47E0112105CAF39F2
:010FF10022DD
:080E9F008F208B218A22892398
:100EA70080077FD0120F33500512115180F4AF2005
:100EB700120F33E4F525F526C3E5269524E5259499
:100EC70000501DAB21AA22A92385268285258312DE
:100ED700090FFF120F330526E52670DC052580D89C
:030EE7000211787D
:080D14008F188B198A1A891B44
:100D1C0080077FD0120F33500512115180F4AF1899
:100D2C00120F331211657FD1120F33121021AB1930
:100D3C00AA1AA91BEF12093C751E00751F01C3E509
:100D4C001F951DE51E951C502012118B121021AB06
:100D5C0019AA1AA91B851F82851E83EF12094E053D
:100D6C001FE51F70D9051E80D512119EC2B67FF4E7
:0E0D7C007E0112105CD2B67FF47E0102105C84
:100EEA00E53575F00A84C454F0FEE53575F00A84D8
:100EFA00E5F04EF52EEB75F00A84C454F0FEEB755E
:100F0A00F00A84E5F04EF52FED75F00A84C454F02A
:100F1A00FEED75F00A84E5F04EF5307B007A007933
:090F2A002E752403E4FF020E9F62
:100C93007B007A00792E751C00751D03E4FF120D8D
:100CA30014852E2DE52D547FC4540F75F00AA4FF2F
:100CB300E52D540F2FF52E852F2DE52DC4540F75DB
:100CC300F00AA4FFE52D540F2FF52FE53030E6236E
:100CD30030E5057531018003E4F53185302DE52DCF
:100CE300541FC4540F75F00AA4FFE52D540F2FF5BC
:100CF30030801785302DE52DC4540F75F00AA4FFFD
:100D0300E52D540F2FF5307531027B007A00792ED3
:010D130022BD
:0D104F007FFA7E0012105CD2B77FFA7E009F
:10105C007C007D0F120970E4FDFCC3ED9FEC9E50EB
:08106C00070DBD00010C80F22C
:011074002259
:05120100D2B6D2B722B5
:10115100D2B7D2B67FF47E0112105CC2B67FF47EA4
:041161000102105C1B
:10116500C2B7121058D2B612104FC2B67FFA7E001F
:0311750002105C09
:10117800C2B7121058C2B612104FD2B67FFA7E000C
:0311880002105CF6
:10118B00C2B7121058C2B6121058D2B77FF47E01F4
:03119B0002105CE3
:10119E00C2B7121058D2B6121058D2B77FF47E01D1
:0311AE0002105CD0
:020F3300AB070A
:100F3500E4FAC2B7121058EBA802088002C333D8EE
:100F4500FC30E704D2B68002C2B6121058D2B77F81
:100F5500F47E0112105C0ABA08D8C2B7D2B67FF483
:100F65007E0112105CD2B77FF47E0112105CA2B62E
:010F75002259
:10102100E4FBFAC2B7D2B67FF47E01121053A2B626
:10103100E433F9C374079AFFE9A807088002C333B0
:0D104100D8FC42031210580ABA08D8AF03B9
:01104E00227F
:0611FB00414D00504D00C3
:0611390053800F438030DB
:10113F00D2817FFA7E0012105CC2817FFA7E00029C
:02114F00105C32
:100FF200AB18AA19A91A12090F75F00A84E5F02490
:0210020030FFBD
:101004008F1ED28353800FE51E54F0428012113F8D
:0D10140053800FE51EC454F0428002113FCE
:0811E4004307807E000210BFEA
:1010BF008E1B8F1CC28353800FE51C54F04280128D
:1010CF00113F53800FAF1CEFC454F0428002113F09
:100DFA00C283C2817F987E3A12105C1211397F94A5
:100E0A007E1112105C1211397F2C7E0112105C12B5
:100E1A0011397F8A7E0212105C53800F43802012A0
:100E2A00113F7F8A7E0212105C7F287E001210BF5B
:100E3A007F0C7E001210BF7F017E001210BF7F065A
:050E4A007E000210BF54
:0E11D6007F017E001210BF7FD07E0702105CEA
:101075008B1B8A1C891DAB1BAA1CA91D1208F660B7
:1010850013051DE51D7002051C14F91208F6FF1263
:05109500100480E222BE
:100B6D008B188A19891AE4FF1211E4AB18AA19A976
:100B7D001A90000212090F75F00A842430FF12102A
:100B8D0004900002120FF27F3A121004AB18AA194A
:100B9D00A91A90000112090F75F00A842430FF1272
:100BAD001004900001120FF27F3A121004AB18AA34
:100BBD0019A91A1208F675F00A842430FF121004D0
:100BCD00AB18AA19A91A1208F6120FFB7F201210E2
:100BDD0004AB18AA19A91A90000312090F14600B7F
:100BED000470117BFF7A1179FB80067BFF7A1179F6
:0A0BFD00FE0210757F48121004225A
:03120600000000E5
:0611F400042801010101C5
:10111C00E4FDFC74292DF8E6FE74282DF8A6060DC6
:0C112C00BD00010CED64034C70E98F2B3A
:011138002294
:100E4F0078187C007D007BFF7A1279067E007F0385
:100E5F001208D0E4FF74282FF8E6FEB40104051839
:100E6F00800EEEB4020405198006EEB40302051AD3
:100E7F000FBF04E1AE18E4FD7F0174182FF8E6FCF4
:0F0E8F00D39E4004AE04AD070FBF03EEED04FF8A
:010E9E002231
:100AA800120DFA1212017590FF75A0FF1209C58F79
:100AB80027E527B40CF6120E4F8F2CE52CB4010550
:100AC8007590FE8012E52CB402057590FD8008E54E
:100AD8002CB403087590FB7F401211E4E527640BE2
:100AE800607A120C93120B6D1209C58F27E527B493
:100AF80001207590FE7F401211E47F0112111CE560
:100B080027F460D81209C58F277F1E7E0012109A1D
:100B180080EDE527B402207590FD7F401211E47F37
:100B28000212111CE527F460B31209C58F277F1E36
:100B38007E0012109A80EDE527B403A07590FB7F24
:100B4800401211E47F0312111CE527F4608E12098C
:100B5800C58F277F1E7E0012109A80ED7590FF12B8
:050B680011D6020AB4E1
:0811EC005345545F54494D00C6
:10109A00E58954F04401F589D28CEF4E6016308D03
:1010AA00F9C28CC28DEF1F70011E758CEC758A77A0
:0510BA00D28C80E6224B
:1009C500C2A2D2A1D2A0D2A320A40D7F107E27124D
:1009D50011C430A4FD7F072220A50D7F107E2712AC
:1009E50011C430A5FD7F082220A60D7F107E271299
:1009F50011C430A6FD7F0922D2A2C2A1D2A0D2A3E2
:100A050020A40D7F107E271211C430A4FD7F04227F
:100A150020A50D7F107E271211C430A5FD7F05226C
:100A250020A60D7F107E271211C430A6FD7F062259
:100A3500D2A2D2A1C2A0D2A320A40D7F107E2712DC
:100A450011C430A4FD7F012220A50D7F107E271241
:100A550011C430A5FD7F022220A60D7F107E27122E
:100A650011C430A6FD7F0322D2A2D2A1D2A0C2A377
:100A750020A40D7F107E271211C430A4FD7F0A2209
:100A850020A50D7F107E271211C430A5FD7F0B22F6
:100A950020A60D7F107E271211C430A6FD7F0C22E3
:030AA5007FFF22AE
:100D8A001209C58F17E517642A70641211B1E50AB2
:100D9A0025E0540FC31375F00AA4FFE50B25E054B0
:100DAA000FC3134FF514E50C25E0540FC31375F068
:100DBA000AA4FFE50D25E0540FC3134FF515E50806
:100DCA0025E0540FC31375F00AA4FFE50925E05482
:100DDA000FC3134FF5167FE87EFD1211C4120DFAE8
:100DEA00121201851635AB15AD14E4FF120EEA2274
:1010FE00753A6E1209C58F3A7F107E271211C4E51C
:0D110E003A646E60EEE53A642A60E8AF3A9C
:01111B0022B1
:100F76007F201210041210FE8F0A1210041210FEA7
:100F86008F0B1210047F3A1210041210FE8F0C12EF
:100F960010041210FE8F0D1210047F3A1210041264
:0F0FA60010FE8F081210041210FE8F09021004A3
:1011B1007FC07E001210BF7BFF7A1179EC1210758F
:0311C100020F76A4
:100C1300020AA8E493A3F8E493A34003F68001F245
:100C230008DFF48029E493A3F85407240CC8C333E2
:100C3300C4540F4420C8834004F456800146F6DFB1
:100C4300E4800B01020408102040809011F4E47E3C
:100C5300019360BCA3FF543F30E509541FFEE493A6
:100C6300A360010ECF54C025E060A840B8E493A36D
:100C7300FAE493A3F8E493A3C8C582C8CAC583CA98
:100C8300F0A3C8C582C8CAC583CADFE9DEE780BE50
:0111FA0000F4
:10080000E709F608DFFA8046E709F208DFFA803EDA
:1008100088828C83E709F0A3DFFA8032E309F608C7
:10082000DFFA8078E309F208DFFA807088828C832F
:10083000E309F0A3DFFA806489828A83E0A3F608E3
:10084000DFFA805889828A83E0A3F208DFFA804CBD
:1008500080D280FA80C680D4806980F28033801094
:1008600080A680EA809A80A880DA80E280CA8033FD
:1008700089828A83ECFAE493A3C8C582C8CCC58375
:10088000CCF0A3C8C582C8CCC583CCDFE9DEE78045
:100890000D89828A83E493A3F608DFF9ECFAA9F0C4
:1008A000EDFB2289828A83ECFAE0A3C8C582C8CC1A
:1008B000C583CCF0A3C8C582C8CCC583CCDFEADE33
:1008C000E880DB89828A83E493A3F208DFF980CC95
:1008D00088F0EF60010E4E60C388F0ED2402B4048E
:1008E0000050B9F582EB2402B4040050AF23234535
:0608F00082239008507302
:1008F600BB010689828A83E0225002E722BBFE0200
:09090600E32289828A83E4932232
:10090F00BB010CE58229F582E5833AF583E022509D
:10091F0006E92582F8E622BBFE06E92582F8E222E7
:0D092F00E58229F582E5833AF583E4932201
:10093C00BB010689828A83F0225002F722BBFE019A
:02094C00F32294
:10094E00F8BB010DE58229F582E5833AF583E8F0DF
:10095E00225006E92582C8F622BBFE05E92582C88B
:02096E00F22273
:10097000BC000BBE0029EF8DF084FFADF022E4CC6B
:10098000F875F008EF2FFFEE33FEEC33FCEE9DEC34
:10099000984005FCEE9DFE0FD5F0E9E4CEFD22ED7A
:1009A000F8F5F0EE8420D21CFEADF075F008EF2FC4
:1009B000FFED33FD4007985006D5F0F222C398FDB5
:0509C0000FD5F0EA2252
:00000001FF
